:020000040000fa
:080000000002040000000000f2
:020000040000fa
:0400080012030000df
:020000040000fa
:04000c005403000099
:020000040000fa
:040010009403000055
:020000040000fa
:0400140032030000b3
:020000040000fa
:04001800740300006d
:020000040000fa
:04001c00f2040000ea
:020000040000fa
:04002000b403000025
:020000040000fa
:04002400f2040000e2
:020000040000fa
:04002800f2040000de
:020000040000fa
:04002c00bc04000010
:020000040000fa
:04003000f2040000d6
:020000040000fa
:04003400f2040000d2
:020000040000fa
:04003800f2040000ce
:020000040000fa
:04003c00f2040000ca
:020000040000fa
:04004000f2040000c6
:020000040000fa
:04004400f2040000c2
:020000040000fa
:04004800f2040000be
:020000040000fa
:04004c00f2040000ba
:020000040000fa
:04005000f2040000b6
:020000040000fa
:04005400f2040000b2
:020000040000fa
:04005800f2040000ae
:020000040000fa
:04005c00f2040000aa
:020000040000fa
:04006000f2040000a6
:020000040000fa
:04006400f2040000a2
:020000040000fa
:04006800f20400009e
:020000040000fa
:04006c00f20400009a
:020000040000fa
:04007000f204000096
:020000040000fa
:04007400f204000092
:020000040000fa
:04007800f20400008e
:020000040000fa
:04007c00f20400008a
:020000040000fa
:04008000f204000086
:020000040000fa
:04008400f204000082
:020000040000fa
:04008800f20400007e
:020000040000fa
:04008c00f20400007a
:020000040000fa
:04009000f204000076
:020000040000fa
:04009400f204000072
:020000040000fa
:04009800f20400006e
:020000040000fa
:04009c00f20400006a
:020000040000fa
:0400a000f204000066
:020000040000fa
:0400a400f204000062
:020000040000fa
:0400a800f20400005e
:020000040000fa
:0400ac00f20400005a
:020000040000fa
:0400b000f204000056
:020000040000fa
:0400b400f204000052
:020000040000fa
:0400b800f20400004e
:020000040000fa
:0400bc00f20400004a
:020000040000fa
:0400c000f204000046
:020000040000fa
:0400c400f204000042
:020000040000fa
:0400c800f20400003e
:020000040000fa
:0400cc00f20400003a
:020000040000fa
:0400d000f204000036
:020000040000fa
:0400d400f204000032
:020000040000fa
:0400d800f20400002e
:020000040000fa
:0400dc00f20400002a
:020000040000fa
:0400e000f204000026
:020000040000fa
:0400e400f204000022
:020000040000fa
:0400e800f20400001e
:020000040000fa
:0400ec00f20400001a
:020000040000fa
:0400f000f204000016
:020000040000fa
:0400f400f204000012
:020000040000fa
:0400f800f20400000e
:020000040000fa
:0400fc00f20400000a
:020000040000fa
:04010000f204000005
:020000040000fa
:04010400f204000001
:020000040000fa
:04010800f2040000fd
:020000040000fa
:04010c00f2040000f9
:020000040000fa
:04011000f2040000f5
:020000040000fa
:04011400f2040000f1
:020000040000fa
:04011800f2040000ed
:020000040000fa
:04011c00f2040000e9
:020000040000fa
:04012000f2040000e5
:020000040000fa
:04012400f2040000e1
:020000040000fa
:04012800f2040000dd
:020000040000fa
:04012c00f2040000d9
:020000040000fa
:04013000f2040000d5
:020000040000fa
:04013400f2040000d1
:020000040000fa
:04013800f2040000cd
:020000040000fa
:04013c00f2040000c9
:020000040000fa
:04014000f2040000c5
:020000040000fa
:04014400f2040000c1
:020000040000fa
:04014800f2040000bd
:020000040000fa
:04014c00f2040000b9
:020000040000fa
:04015000f2040000b5
:020000040000fa
:04015400f2040000b1
:020000040000fa
:04015800f2040000ad
:020000040000fa
:04015c00f2040000a9
:020000040000fa
:04016000f2040000a5
:020000040000fa
:04016400f2040000a1
:020000040000fa
:04016800f20400009d
:020000040000fa
:04016c00f204000099
:020000040000fa
:04017000f204000095
:020000040000fa
:04017400f204000091
:020000040000fa
:04017800f20400008d
:020000040000fa
:04017c00f204000089
:020000040000fa
:04018000f204000085
:020000040000fa
:04018400f204000081
:020000040000fa
:04018800f20400007d
:020000040000fa
:04018c00f204000079
:020000040000fa
:040190000e04000059
:020000040000fa
:04019400f204000071
:020000040000fa
:04019800f20400006d
:020000040000fa
:04019c00f204000069
:020000040000fa
:0401a000f204000065
:020000040000fa
:0401a400f204000061
:020000040000fa
:0401a800f20400005d
:020000040000fa
:0401ac00f204000059
:020000040000fa
:0401b000f204000055
:020000040000fa
:0401b400f204000051
:020000040000fa
:0401b800f20400004d
:020000040000fa
:0401bc00f204000049
:020000040000fa
:0401c000f204000045
:020000040000fa
:0401c400f204000041
:020000040000fa
:0401c800f20400003d
:020000040000fa
:0401cc00f204000039
:020000040000fa
:0401d000f204000035
:020000040000fa
:0401d400f204000031
:020000040000fa
:0401d800f20400002d
:020000040000fa
:0401dc00f204000029
:020000040000fa
:0401e000f204000025
:020000040000fa
:0401e400f204000021
:020000040000fa
:0401e800f20400001d
:020000040000fa
:0401ec00f204000019
:020000040000fa
:0401f000f204000015
:020000040000fa
:0401f400f204000011
:020000040000fa
:0401f800f20400000d
:020000040000fa
:0401fc00f204000009
:020000040000fa
:04020000f204000004
:020000040000fa
:04020400f204000000
:020000040000fa
:04020800f2040000fc
:020000040000fa
:04020c00f2040000f8
:020000040000fa
:04021000f2040000f4
:020000040000fa
:04021400f2040000f0
:020000040000fa
:04021800f2040000ec
:020000040000fa
:04021c00f2040000e8
:020000040000fa
:04022000f2040000e4
:020000040000fa
:04022400f2040000e0
:020000040000fa
:04022800f2040000dc
:020000040000fa
:04022c00f2040000d8
:020000040000fa
:04023000f2040000d4
:020000040000fa
:04023400f2040000d0
:020000040000fa
:04023800f2040000cc
:020000040000fa
:04023c00f2040000c8
:020000040000fa
:04024000f2040000c4
:020000040000fa
:04024400f2040000c0
:020000040000fa
:04024800f2040000bc
:020000040000fa
:04024c00f2040000b8
:020000040000fa
:04025000f2040000b4
:020000040000fa
:04025400f2040000b0
:020000040000fa
:04025800f2040000ac
:020000040000fa
:04025c00f2040000a8
:020000040000fa
:04026000f2040000a4
:020000040000fa
:04026400f2040000a0
:020000040000fa
:04026800f20400009c
:020000040000fa
:04026c00f204000098
:020000040000fa
:04027000f204000094
:020000040000fa
:04027400f204000090
:020000040000fa
:04027800f20400008c
:020000040000fa
:04027c00f204000088
:020000040000fa
:04028000f204000084
:020000040000fa
:04028400f204000080
:020000040000fa
:04028800f20400007c
:020000040000fa
:04028c00f204000078
:020000040000fa
:04029000f204000074
:020000040000fa
:04029400f204000070
:020000040000fa
:04029800f20400006c
:020000040000fa
:04029c00f204000068
:020000040000fa
:0402a000f204000064
:020000040000fa
:0402a400f204000060
:020000040000fa
:0402a800f20400005c
:020000040000fa
:0402ac00f204000058
:020000040000fa
:0402b000f204000054
:020000040000fa
:0402b400f204000050
:020000040000fa
:0402b800f20400004c
:020000040000fa
:0402bc00f204000048
:020000040000fa
:0402c000f204000044
:020000040000fa
:0402c400f204000040
:020000040000fa
:0402c800f20400003c
:020000040000fa
:0402cc00f204000038
:020000040000fa
:0402d000f204000034
:020000040000fa
:0402d400f204000030
:020000040000fa
:0402d800f20400002c
:020000040000fa
:0402dc00f204000028
:020000040000fa
:0402e000f204000024
:020000040000fa
:0402e400f204000020
:020000040000fa
:0402e800f20400001c
:020000040000fa
:0402ec00f204000018
:020000040000fa
:0402f000f204000014
:020000040000fa
:0402f400f204000010
:020000040000fa
:0402f800f20400000c
:020000040000fa
:0402fc00f204000008
:020000040000fa
:04030000f204000003
:020000040000fa
:04030400f2040000ff
:020000040000fa
:04030800f2040000fb
:020000040000fa
:04030c00f2040000f7
:020000040000fa
:04031000f2040000f3
:020000040000fa
:04031400f2040000ef
:020000040000fa
:04031800f2040000eb
:020000040000fa
:04031c00f2040000e7
:020000040000fa
:04032000f2040000e3
:020000040000fa
:04032400f2040000df
:020000040000fa
:040328004404000089
:020000040000fa
:04032c008004000049
:020000040000fa
:04033000f2040000d3
:020000040000fa
:04033400f2040000cf
:020000040000fa
:10040000cf0321000eff26000e018800000000002f
:10041000000020000000e000020032000001200087
:100420002002880014000700700107000000e000af
:1004300003003a00c0f32000010020000200370052
:100440000000200001002000810f70000100320038
:100450000f000700000020000000e0000200320052
:100460000000020000000000ba05020000000000c9
:100470000040da000000fe00200020000000e00044
:1004800002003200100020009001880000000600e9
:10049000a1028800800478000000eb001f003700f4
:1004a000e284440054a0b4009905ba00e2844400f8
:1004b00054a0b4009906ba00e284440054a0b400e9
:1004c0000006eb00476fde00fd07b200ae018800ba
:1004d000636ce10003003a000ad801000000eb0061
:1004e0000e003700606ce10008003a00004deb00a0
:1004f0000a05e800020039003420ec000af0a000f0
:100500008b05e900f9ff3e00040037006168e10057
:10051000010032000086eb000b00070019c7ba008b
:100520001905ba000e04e00003003a000a00e000da
:10053000dbff3a0000000600fe07b200ae028800b2
:100540008a047800f5ff37000cd0a300e20f4d00bd
:100550001c00390089027800354dba000a05e80010
:10056000020039003420ec000af0a0008b05e900fd
:100570000f003200254dba000a05e80002003900dc
:100580003420ec000af0a0008b05e90008003200de
:100590000c00e0000600320015cdba000a05e800a4
:1005a000020039003420ec000af0a0008b05e900bd
:1005b0008984e80054a0b4000b00e000e2ff3a0098
:1005c000000006009902ba00055d78008b05e9007d
:1005d000f7ff3200c82ade00055d78008b05e900d0
:1005e000f3ff32000c00e000f1ff320019ddba0029
:1005f000eeff3700da0b040000000000ec0b0400f3
:1006000000000000200c040000000000340c040076
:1006100000000000ea08040000000000b40d04001f
:10062000000000003600f800809fbe00829fbe00e0
:10063000849fbe00869fbe000000fa00c028a9006b
:100640000000eb002e0607000080fa004f03be00fa
:100650004f02be004f01be004f00be003600f90041
:10066000004006003600f800809fbe00829fbe005a
:10067000849fbe00869fbe000000fa00250607008a
:10068000c048a900100020001d0607000080fa00e5
:100690004f03be004f02be004f01be004f00be0020
:1006a0003600f900004006003600f800809fbe00ca
:1006b000829fbe00849fbe00869fbe000000fa009d
:1006c000c068a900200020000d0607000080fa0085
:1006d0004f03be004f02be004f01be004f00be00e0
:1006e0003600f900004006003600f800809fbe008a
:1006f000829fbe00849fbe00869fbe000000fa005d
:10070000c088a90030002000fd0507000080fa0025
:100710004f03be004f02be004f01be004f00be009f
:100720003600f900004006003600f800809fbe0049
:10073000829fbe00849fbe00869fbe000000fa001c
:10074000c608a90070002000ed0507000080fa002f
:100750004f03be004f02be004f01be004f00be005f
:100760003600f900004006003600f800809fbe0009
:10077000829fbe00849fbe00869fbe000000fa00dc
:100780002146800000102000008060000000e00092
:1007900003003200c508a900c0002000d8050700ea
:1007a0002146800000002800008060000000e0007a
:1007b00003003200c5e8a90080002000d005070032
:1007c0002146800000022000008060000000e00060
:1007d00003003200c4a8a90090002000c80507004b
:1007e00020468000700060000000e000030032003e
:1007f000c488a900a0002000c10507002046800091
:10080000610060000000e00003003200c408a9009d
:10081000b0002000ba050700ffff37003600f800df
:10082000809fbe00829fbe00849fbe00869fbe0048
:100830003200f8003400f80010002000a001880009
:100840001000200000d0fe000000fa007080800040
:100850000000e00002003200708080000000010013
:100860000b48a9000080fa003400f9003200f900ba
:100870004f03be004f02be004f01be004f00be003e
:100880003600f900004006003600f800809fbe00e8
:10089000829fbe00849fbe00869fbe003200f8008b
:1008a0003400f80010002000a00188001000200093
:1008b00000d0fe000200fa00e1618000010f780024
:1008c000908080000000e0000300320091808000f2
:1008d0001e007800010001001808a9000080fa003d
:1008e0003400f9003200f9004f03be004f02be0091
:1008f0004f01be004f00be003600f9000040060068
:100900003600f800809fbe00829fbe00849fbe001c
:10091000869fbe003200f8003400f800100020006e
:10092000a00188001000200000d0fe000200fa00a4
:10093000f1618000010f7800a08080000000e000dd
:1009400003003200a18080001e0078000100010039
:100950001828a9000080fa003400f9003200f900dc
:100960004f03be004f02be004f01be004f00be004d
:100970003600f900004006003600f800809fbe00f7
:10098000829fbe00849fbe00869fbe000000fa00ca
:10099000c08080000000e00002003200c0808000c3
:1009a00000000100b0032100104078008040e80002
:1009b000b003210001487800a003210011c0b3005a
:1009c000014878000028a9000080fa004f03be000b
:1009d0004f02be004f01be004f00be003600f900be
:1009e000004006000040da000000fe0000000500a4
:020000040000fa
:1009f0000200fa00000f78001e007800e20f50009d
:100a000006003200e40f500006003200e10f5000f3
:100a100007003a002be3a8000600370061e3a800b6
:100a200004003700cde3a8000000000001003700fb
:100a3000000000000080fa00000006000200fa003a
:100a4000000f78001e007800e20f50000600320010
:100a5000e40f500006003200e10f500007003a009a
:100a60002be3a9000600370061e3a900040037006a
:100a7000cde3a900000000000100370000000000e5
:100a80000080fa00000006000000fa002be3a90035
:100a900061e3a900cde3a9000080fa000000060090
:100aa0000400fa00000f7800110798001e0078007b
:100ab000e20f500007003200e40f5000080032003f
:100ac000e10f50000a003a009e009000711a880061
:100ad000080037009e009000211c880005003700a8
:100ae0009e009000811f8800000000000100370078
:100af000000000000080fa00000006000000fa007c
:100b000001eba8000080fa00000006000200fa00d5
:100b1000000f78000080fa00000006000400fa00d0
:100b2000100798001e009000e10f500008003200ee
:100b3000e10f500003003900e20f500007003200bf
:100b40000900370011618000010f780006003700ae
:100b5000e1618000010f780003003700f16180003f
:100b6000010f7800000000001e0078000080fa00ed
:100b7000000006000000fa009c0407008f02070036
:100b8000deff07000000eb00e0ff0700a08e200062
:100b9000f803070000002c000080880023cea90085
:100ba00023eea900238ea90023aea9005a2ea90086
:100bb0005a0ea900803e2000c30407000000eb008d
:100bc000d6ff070010808800118080004080200040
:100bd000008040004400dd0000f0a7000000ea00b3
:100be000008088000180800000f02f00808f50007e
:100bf0000200360000f02f00008088000180800095
:100c0000f0ff2000808f500002003e000000210015
:100c10000080880011808000f07f2000808f5000cd
:100c20000300360010c0b3000df0b700010037001c
:100c30000d70ef00a1738000008020000080600034
:100c40000000e00009003a0076cea8001700070077
:100c50000dd0bf000004e000020032008100070058
:100c6000d6ff3700ed000700d4ff370076cea9008d
:100c70000a30ef0084ff070023cea90023eea9006d
:100c8000238ea90023aea9005a2ea9005a0ea9004e
:100c90001000200056ff07008000eb00100020002d
:100ca0007fff070078ff0700c4ff37000000fa004d
:100cb000a173800000402000008060000000e00080
:100cc0000d003200a1738000002020000080600031
:100cd0000000e00008003a00a1738000001020002e
:100ce000008060000000e0000300320010002000df
:100cf0003080880059003700a17380000040200038
:100d0000008060000000e0000d003200a173800050
:100d100000202000008060000000e00008003a0091
:100d2000a173800000102000008060000000e0003f
:100d300003003a0020002000308088004700370080
:100d4000a173800000402000008060000000e000ef
:100d50000d003200a17380000020200000806000a0
:100d60000000e00008003200a173800000102000a5
:100d7000008060000000e00003003a003000200026
:100d80003080880035003700a173800000402000cb
:100d9000008060000000e0000d003a00a1738000b8
:100da00000202000008060000000e0000800320009
:100db000a173800000102000008060000000e000af
:100dc00003003a00400020003080880023003700f4
:100dd000a173800000402000008060000000e0005f
:100de0000d003a00a1738000002020000080600008
:100df0000000e00008003200a17380000010200015
:100e0000008060000000e00003003200500020007d
:100e10003080880011003700a1738000004020005e
:100e2000008060000000e0000c003a00a173800028
:100e300000202000008060000000e00007003a0071
:100e4000a173800000102000008060000000e0001e
:100e50000200320060002000308088000080fa002c
:100e6000000006000000fa0030808000e10f500012
:100e70000f003a0020002000f0fe07004000200094
:100e8000eefe070010002000d9fe07000080800061
:100e9000800078001000200001ff070023aea800aa
:100ea000238ea9005a2ea9005a0ea9005900370016
:100eb00030808000e20f50000f003a001000200048
:100ec000defe070020002000dcfe070040002000be
:100ed000c7fe0700008080008000780040002000ee
:100ee000effe070023aea80023cea90023eea90041
:100ef000238ea9004700370030808000e30f5000a8
:100f00000f003a0010002000ccfe07002000200057
:100f1000cafe070040002000b5fe070000808000e8
:100f20008000780040002000ddfe070023eea800ce
:100f300023cea900238ea90023aea90035003700d7
:100f400030808000e40f50000f003a0010002000b5
:100f5000bafe070040002000b8fe07002000200075
:100f6000a3fe0700008080008000780020002000a1
:100f7000cbfe070023eea80023cea9005a2ea9001d
:100f80005a0ea9002300370030808000e50f500082
:100f90000f003a0010002000a8fe070040002000cb
:100fa000a6fe07002000200091fe070000808000c0
:100fb0008000780020002000b9fe07005a0ea8002b
:100fc00023cea90023eea9005a2ea9001100370054
:100fd00030808000e60f50000e003a002000200014
:100fe00096fe07004000200094fe0700100020003d
:100ff0007ffe070000808000800078001000200045
:10100000a7fe07005a0ea800238ea90023aea90050
:101010005a2ea9000080fa00000006000000fa0025
:1010200030808000e10f50000f003a0010002000d7
:1010300082fe07004000200080fe07002000200004
:101040006bfe0700008080008000780020002000f8
:1010500093fe070023eea80023cea9005a2ea90074
:101060005a0ea9005900370030808000e20f50006e
:101070000f003a001000200070fe07004000200022
:101080006efe07002000200059fe0700008080004f
:10109000800078002000200081fe07005a0ea80082
:1010a00023cea90023eea9005a2ea900470037003d
:1010b00030808000e30f50000f003a004000200015
:1010c0005efe0700200020005cfe070010002000ec
:1010d00047fe07000080800080007800100020009c
:1010e0006ffe07005a0ea800238ea90023aea900a8
:1010f0005a2ea9003500370030808000e40f5000e0
:101100000f003a00200020004cfe070040002000a5
:101110004afe07001000200035fe07000080800016
:1011200080007800100020005dfe070023aea800bc
:10113000238ea9005a2ea9005a0ea90023003700b9
:1011400030808000e50f50000f003a0020002000a2
:101150003afe07001000200038fe07004000200083
:1011600023fe0700008080008000780040002000ff
:101170004bfe070023aea80023cea90023eea90052
:10118000238ea9001100370030808000e60f500048
:101190000e003a002000200028fe0700100020006a
:1011a00026fe07004000200011fe0700008080009e
:1011b000800078004000200039fe070023eea800e0
:1011c00023cea900238ea90023aea9000080fa0037
:1011d000000006000000fa00508080000000e800d7
:1011e000508088000080fa00000006000000fa002d
:1011f00030002000001888000223ef000423ef00d5
:101200000623ef000823ef0000012000501888009b
:101210000c23ef000e23ef001023ef001223ef004a
:101220001423ef001623ef001823ef001a23ef001a
:101230001c23ef001e23ef002023ef002223ef00ea
:101240002423ef002623ef002823ef002c23ef00b8
:101250006223ef00ce23ef002e23ef006423ef0084
:10126000d023ef003023ef006623ef00d223ef00fe
:10127000c000200090198800c0002000401b88009a
:10128000c0002000a01e880000102000a0198800c7
:101290006a23ef00d623ef003623ef006c23ef0024
:1012a000d823ef003823ef006e23ef00da23ef009e
:1012b0003a23ef007023ef00dc23ef003c23ef0024
:1012c0007223ef00de23ef003e23ef007423ef00d4
:1012d000e023ef004023ef007623ef00e223ef004e
:1012e0004223ef007823ef00e423ef004423ef00d4
:1012f0007a23ef00e623ef004623ef007c23ef0084
:10130000e823ef004823ef007e23ef00ea23ef00fd
:101310004a23ef008023ef00ec23ef004c23ef0083
:101320008223ef00ee23ef00e0002000701a880017
:10133000e0002000201c8800e0002000801f8800c2
:101340005023ef008623ef00f223ef00000120007e
:10135000901a880000012000401c88000001200035
:10136000a01f880000c42900a01a88008a23ef006b
:10137000f623ef005623ef008c23ef00f823ef0055
:101380005823ef008e23ef00fa23ef002000200007
:10139000d01a880020002000801c88002000200037
:1013a000e01f880020002000e01a880020002000b4
:1013b000901c880020002000f01f88000000000022
:1013c000440207000004a2000004e000fcff3a0011
:1013d000800828005019880080082800001b880019
:1013e00080082800601e88000080fa0000000600c7
:1013f0000000fa000080fa00000006000000fa0079
:1014000040408000680060000000e0000200320000
:10141000f7ff07000868a9000080fa000000060036
:101420000000fa000080fa00000006000000fa0048
:1014300040408000700060000000e00002003200c8
:10144000f7ff07000888a9000080fa0000000600e6
:101450000000fa000080fa00000006000000fa0018
:101460004140800000042000008060000000e00097
:1014700002003200f6ff070008c8a9000080fa0049
:10148000000006000000fa000080fa0000000600dc
:101490000000fa00a14080000020200000806000d1
:1014a0000000e00002003200f6ff07001528a90046
:1014b0000080fa00000006000000fa000080fa0038
:1014c000000006000000fa00a1408000004020005b
:1014d000008060000000e00002003200f6ff07001c
:1014e0001548a9000080fa00000006000000fa007c
:1014f0000080fa00000006000000fa00a140800011
:1015000000802000008060000000e0000200320047
:10151000f6ff07001568a9000080fa000000060029
:101520000000fa000080fa00000006000000fa0047
:10153000a140800000002100008060000000e00069
:1015400002003200f6ff07001588a9000080fa00ab
:10155000000006000000fa000080fa00000006000b
:101560000000fa00a140800000002200008060001e
:101570000000e00002003200f6ff070015a8a900f5
:101580000080fa00000006000000fa000080fa0067
:10159000000006000000fa00a140800000002400c6
:1015a000008060000000e00002003200f6ff07004b
:1015b00015c8a9000080fa00000006000000fa002b
:1015c000002bef000006200010588800042bef00cd
:1015d000062bef00082bef000a2bef000c2bef007f
:1015e0000e2bef00102bef00122bef00142bef004f
:1015f000162bef00202bef00003020001059880040
:10160000382bef00402bef00482bef00502bef0062
:101610003a2bef00422bef004a2bef00522bef004a
:101620003c2bef00442bef004c2bef00542bef0032
:101630003e2bef00462bef004e2bef00562bef001a
:1016400000402000505b880000402000705b880054
:1016500000402000905b880000402000b05b8800c4
:10166000a02bef00a42bef00a82bef00ac2bef007a
:10167000d02bef00d22bef00d42bef00d82bef00b4
:1016800000302000b05e880000302000d05e88006e
:10169000f02bef00f22bef00022cef00a0bd20009a
:1016a00047000700c0be20004f00070000c2200016
:1016b0006700070040c320006f0007000b48a90027
:1016c0002b48a8001808a9003808a8001828a90065
:1016d0003828a8001160800000f020000100700090
:1016e0001060880001eba80027000700802bef00a6
:1016f000822bef00842bef00862bef00882bef006e
:1017000000402000505c88008c2bef008e2bef00f7
:10171000902bef00922bef00942bef00962bef0015
:1017200010102000c05c88000080fa000000060055
:101730000000fa00000ca80000000000016080001a
:1017400000102000008060000000e000fbff32007d
:101750000a0ba8000080fa00000006000000fa0052
:10176000002ca80000000000016080000020200084
:10177000008060000000e000fbff32000a2ba800a0
:101780000080fa00000006000000fa0000eca8004b
:101790000000000001608000000028000080600060
:1017a0000000e000fbff32000aeba8000080fa0016
:1017b000000006000000fa000080fa0000000600a9
:1017c0000200fa00000f78001e0078007080880088
:1017d0000080fa00000006000200fa00000f780006
:1017e0000080fa00000006000200fa00000f7800f6
:1017f0001e007800808088000080fa00000006004b
:101800000200fa0081598000008020000080600002
:101810000000e0000800320011618000010f780034
:10182000808080000000e0000300320081808000a2
:101830001e007800010001000080fa000000060090
:101840000200fa00000f78000080fa000000060095
:101850000200fa00000f78001e00780090808800d7
:101860000080fa00000006000200fa00000f780075
:101870000080fa00000006000200fa00000f780065
:101880001e007800a08088000080fa00000006009a
:101890000000fa00007c80000080fa0000000600d2
:1018a0000200fa00faff0700000f78001e0078001f
:1018b000240007000004e0000200320000002800bd
:1018c000710007001e0078002a0007000004e000f5
:1018d00002003200000024006b0007001e007800a8
:1018e000320007000004e000020032000020200067
:1018f000650007001e0078003a0007000004e000c1
:1019000002003200000820005f0007001e0078007f
:10191000420007000004e000020032000004200042
:10192000590007001e0078004a0007000004e0008c
:101930000200320000012000530007000080fa007e
:10194000000006000400fa00100798000040eb00b9
:10195000004f78001e0090000000e00002003d00f3
:1019600010c0b300004f78001e4078000080fa00dd
:10197000000006000400fa00100798000040eb0089
:10198000004f78009e00900000002400008060005e
:101990000000e0000200320010c0b300004f7800e9
:1019a0001e4078000080fa00000006000400fa00e3
:1019b000100798000040eb00004f78009e00900058
:1019c00000202000008060000000e00002003200e3
:1019d00010c0b300004f78001e4078000080fa006d
:1019e000000006000400fa00100798000040eb0019
:1019f000004f78009e0090000008200000806000ea
:101a00000000e0000200320010c0b300004f780078
:101a10001e4078000080fa00000006000400fa0072
:101a2000100798000040eb00004f78009e009000e7
:101a300000042000008060000000e000020032008e
:101a400010c0b300004f78001e4078000080fa00fc
:101a5000000006000400fa00100798000040eb00a8
:101a6000004f78001e009000700060000000e00051
:101a70000200320010c0b300004f78001e40780012
:101a80000080fa00000006000200fa00000f780053
:101a90009e80ea00007c800000806000007c88005e
:101aa0000080fa00000006000000fa00802fef001e
:101ab0000080fa00000006000000fa000421ef0098
:101ac000f0f9200040088800000028000008880085
:101ad000c08080000000e00002003a0040db2000ef
:101ae000240007000028a9002028a800a003210046
:101af0008040eb00014878000080fa0000000600fa
:101b00000200fa00000f78009e007800410888006b
:101b1000a00321008040eb00014878000080fa001b
:101b2000000006000000fa00400880000080fa0073
:101b3000000006000200fa00000f78009e00780006
:101b400021088800a00321008040eb0001487800b4
:101b50000080fa00000006000000fa002008800063
:101b60000080fa00000006000000fa000080fa0081
:101b7000000006000200fa00000f78002028a900eb
:101b80009e007800c18088002028a8000080fa000c
:101b9000000006000000fa00a00321008040eb00d6
:101ba000014878002028a80001e1a8000080fa0080
:101bb000000006000000fa0001e1a9002028a900a9
:101bc0000080fa00000006000200fa00a0032100d5
:101bd000104f78001e4078000004e000030032003f
:101be000a00321008040eb00014878001e407800ef
:101bf0000080fa00000006000000fa00b003210097
:101c0000104078000080fb000080fa000000060011
:101c10000000fa00b00321008040eb00014878008a
:101c20000080fa00000006000000fa001000230007
:101c3000307c880000012000407c88008c2fef0061
:101c400010012000507c880010102800707c880053
:101c5000800c2000807c880010022000907c88008e
:101c60009a2fef00b82fef00ba2fef00be2fef0032
:101c7000002def00a02fef00a42fef00a62fef0004
:101c8000a82fef00aa2fef00ae2fef00b02fef002c
:101c9000b22fef007200200080072000a109200071
:101ca00053f8200080497800814978008249780003
:101cb0000001eb00600420007105200043f82000c3
:101cc0008049780081497800824978000080fa00d4
:101cd000000006000000fa00707c8000ee800a0020
:101ce000000000000080fb0000f0a7000000ea00f8
:101cf0000000ea004f00de00004078000080fa009b
:101d0000000006000000fa00062eef00222eef0071
:101d10003e2eef005a2eef00762eef00f00120004d
:101d200010708800d0ff2000f07088000080eb0069
:101d3000d0718800c0ff2f00b0728800f0fb2f0028
:101d4000907388000c2eef00282eef00442eef0039
:101d5000602eef007c2eef000a2eef00262eef0003
:101d6000422eef005e2eef007a2eef00082eef00dd
:101d7000242eef00402eef005c2eef00782eef00b7
:101d8000f001200000708800f0392000e070880029
:101d9000f00c2000c071880000c02200a0728800f2
:101da000f0002000807388000080fa000000060028
:101db0000200fa00000f780021028000200f2000ae
:101dc000008060001e007000200288000080fa0081
:101dd000000006000000fa00c3e8a80000000000b0
:101de000000000000080fa00000006000000fa0079
:101df000c4ff07008cff070008000700effd070085
:101e0000fafc07002cff0700f2ff07000002200089
:101e1000e7ff07000080fa00000006000000fa005b
:101e200061438000f08f2f00008060000080a000e0
:101e3000604388000145800080ff2f000080600023
:101e40000000a0000045880001458000f0f82f0048
:101e5000008060000040a000004588000142800032
:101e6000f0f82f00008060000040a00000428800d1
:081e70000080fa0000000600ea
:020000040000fa
:101e78001a1000002000000080000000161000006a
:101e88000200000082000000ffff00000e100000aa
:101e98000800000080000000001000000e00000094
:101ea800800000003a1000000200000080000000de
:101eb8001810000002000000800000000000000070
:020000040000fa
:101ec800f03fb1000180b10006003500ee030900c3
:101ed80000000000403fb1000180b100fbff3d0061
:101ee8001000b000203fb00002003500008009005b
:081ef8000000000000000600dc
:020000040000fa
:101f00000200fa00000f78009e007800b18088007f
:101f1000ffff37000000fa00a001210080077800d1
:101f200020032100000188000080fa000000060064
:020000040000fa
:020000040005f5
:047e0000ffffff0081
:020000040000fa
:020000040005f5
:047e2000ffffff0061
:020000040000fa
:020000040005f5
:047e30007fffff00d1
:020000040000fa
:020000040005f5
:047e38007bffff00cd
:020000040000fa
:020000040005f5
:047e40006003ff00dc
:020000040000fa
:020000040005f5
:047e4800ffffff0039
:020000040000fa
:020000040005f5
:047e5000ddffff0053
:020000040000fa
:020000040005f5
:047e58000000ff0027
:020000040000fa
:020000040005f5
:047e60000000ff001f
:020000040000fa
:020000040005f5
:047e68000000ff0017
:020000040000fa
:020000040005f5
:047e70000000ff000f
:020000040000fa
:020000040005f5
:047e7800ffffff0009
:020000040000fa
:020000040005f5
:047e8000fffcff0004
:020000040000fa
:020000040005f5
:047e8800ffffff00f9
:020000040000fa
:020000040005f5
:047ff800ffffff0088
:020000040000fa
:020000040100f9
:04300000ffffff00cf
:00000001FF
